{
    "abi": [
        {
            "inputs": [],
            "stateMutability": "nonpayable",
            "type": "constructor"
        },
        {
            "anonymous": false,
            "inputs": [
                {
                    "indexed": true,
                    "internalType": "address",
                    "name": "from",
                    "type": "address"
                },
                {
                    "indexed": false,
                    "internalType": "uint256",
                    "name": "timestamp",
                    "type": "uint256"
                },
                {
                    "indexed": false,
                    "internalType": "string",
                    "name": "message",
                    "type": "string"
                }
            ],
            "name": "NewTweet",
            "type": "event"
        },
        {
            "inputs": [
                {
                    "internalType": "address",
                    "name": "",
                    "type": "address"
                }
            ],
            "name": "lastTweetedAt",
            "outputs": [
                {
                    "internalType": "uint256",
                    "name": "",
                    "type": "uint256"
                }
            ],
            "stateMutability": "view",
            "type": "function"
        },
        {
            "inputs": [],
            "name": "me",
            "outputs": [
                {
                    "internalType": "address",
                    "name": "",
                    "type": "address"
                }
            ],
            "stateMutability": "view",
            "type": "function"
        },
        {
            "inputs": [
                {
                    "internalType": "address",
                    "name": "",
                    "type": "address"
                }
            ],
            "name": "numOfTweets",
            "outputs": [
                {
                    "internalType": "uint256",
                    "name": "",
                    "type": "uint256"
                }
            ],
            "stateMutability": "view",
            "type": "function"
        },
        {
            "inputs": [
                {
                    "internalType": "string",
                    "name": "_message",
                    "type": "string"
                }
            ],
            "name": "tweetAtMe",
            "outputs": [],
            "stateMutability": "nonpayable",
            "type": "function"
        }
    ],
    "bytecode": "608060405234801561001057600080fd5b50600080546001600160a01b03191633179055610313806100326000396000f3fe608060405234801561001057600080fd5b506004361061004c5760003560e01c80637867a73714610051578063b281395b14610066578063cb12b48f14610099578063cd097de2146100c4575b600080fd5b61006461005f3660046101df565b6100e4565b005b610086610074366004610251565b60026020526000908152604090205481565b6040519081526020015b60405180910390f35b6000546100ac906001600160a01b031681565b6040516001600160a01b039091168152602001610090565b6100866100d2366004610251565b60016020526000908152604090205481565b33600090815260026020526040902054429061010290610384610281565b106101655760405162461bcd60e51b815260206004820152602960248201527f4d7573742077616974203135206d696e75746573206265666f7265207761766960448201526837339030b3b0b4b71760b91b606482015260840160405180910390fd5b3360009081526001602081905260408220805491929091610187908490610281565b90915550503360008181526002602052604090819020429081905590517f247b19649778c81aad1923b4b49025b7eed6f664d6a4e802190bfb35724f95a9916101d391869086906102a7565b60405180910390a25050565b600080602083850312156101f257600080fd5b823567ffffffffffffffff8082111561020a57600080fd5b818501915085601f83011261021e57600080fd5b81358181111561022d57600080fd5b86602082850101111561023f57600080fd5b60209290920196919550909350505050565b60006020828403121561026357600080fd5b81356001600160a01b038116811461027a57600080fd5b9392505050565b600082198211156102a257634e487b7160e01b600052601160045260246000fd5b500190565b83815260406020820152816040820152818360608301376000818301606090810191909152601f909201601f191601019291505056fea264697066735822122061b9e52e484a7dbcf77494d6a8a9224028a2f41c944f20919c55896800a3af8664736f6c634300080b0033",
    "bytecodeSha1": "614a7a405e1c88693da8adcd19d494fa1dfd5dcd",
    "compiler": {
        "evm_version": "istanbul",
        "optimizer": {
            "enabled": true,
            "runs": 200
        },
        "version": "0.8.11+commit.d7f03943"
    },
    "contractName": "TwitterAccount",
    "language": "Solidity",
    "natspec": {
        "kind": "dev",
        "methods": {},
        "version": 1
    },
    "opcodes": "PUSH1 0x80 PUSH1 0x40 MSTORE CALLVALUE DUP1 ISZERO PUSH2 0x10 JUMPI PUSH1 0x0 DUP1 REVERT JUMPDEST POP PUSH1 0x4 CALLDATASIZE LT PUSH2 0x4C JUMPI PUSH1 0x0 CALLDATALOAD PUSH1 0xE0 SHR DUP1 PUSH4 0x7867A737 EQ PUSH2 0x51 JUMPI DUP1 PUSH4 0xB281395B EQ PUSH2 0x66 JUMPI DUP1 PUSH4 0xCB12B48F EQ PUSH2 0x99 JUMPI DUP1 PUSH4 0xCD097DE2 EQ PUSH2 0xC4 JUMPI JUMPDEST PUSH1 0x0 DUP1 REVERT JUMPDEST PUSH2 0x64 PUSH2 0x5F CALLDATASIZE PUSH1 0x4 PUSH2 0x1DF JUMP JUMPDEST PUSH2 0xE4 JUMP JUMPDEST STOP JUMPDEST PUSH2 0x86 PUSH2 0x74 CALLDATASIZE PUSH1 0x4 PUSH2 0x251 JUMP JUMPDEST PUSH1 0x2 PUSH1 0x20 MSTORE PUSH1 0x0 SWAP1 DUP2 MSTORE PUSH1 0x40 SWAP1 KECCAK256 SLOAD DUP2 JUMP JUMPDEST PUSH1 0x40 MLOAD SWAP1 DUP2 MSTORE PUSH1 0x20 ADD JUMPDEST PUSH1 0x40 MLOAD DUP1 SWAP2 SUB SWAP1 RETURN JUMPDEST PUSH1 0x0 SLOAD PUSH2 0xAC SWAP1 PUSH1 0x1 PUSH1 0x1 PUSH1 0xA0 SHL SUB AND DUP2 JUMP JUMPDEST PUSH1 0x40 MLOAD PUSH1 0x1 PUSH1 0x1 PUSH1 0xA0 SHL SUB SWAP1 SWAP2 AND DUP2 MSTORE PUSH1 0x20 ADD PUSH2 0x90 JUMP JUMPDEST PUSH2 0x86 PUSH2 0xD2 CALLDATASIZE PUSH1 0x4 PUSH2 0x251 JUMP JUMPDEST PUSH1 0x1 PUSH1 0x20 MSTORE PUSH1 0x0 SWAP1 DUP2 MSTORE PUSH1 0x40 SWAP1 KECCAK256 SLOAD DUP2 JUMP JUMPDEST CALLER PUSH1 0x0 SWAP1 DUP2 MSTORE PUSH1 0x2 PUSH1 0x20 MSTORE PUSH1 0x40 SWAP1 KECCAK256 SLOAD TIMESTAMP SWAP1 PUSH2 0x102 SWAP1 PUSH2 0x384 PUSH2 0x281 JUMP JUMPDEST LT PUSH2 0x165 JUMPI PUSH1 0x40 MLOAD PUSH3 0x461BCD PUSH1 0xE5 SHL DUP2 MSTORE PUSH1 0x20 PUSH1 0x4 DUP3 ADD MSTORE PUSH1 0x29 PUSH1 0x24 DUP3 ADD MSTORE PUSH32 0x4D7573742077616974203135206D696E75746573206265666F72652077617669 PUSH1 0x44 DUP3 ADD MSTORE PUSH9 0x37339030B3B0B4B717 PUSH1 0xB9 SHL PUSH1 0x64 DUP3 ADD MSTORE PUSH1 0x84 ADD PUSH1 0x40 MLOAD DUP1 SWAP2 SUB SWAP1 REVERT JUMPDEST CALLER PUSH1 0x0 SWAP1 DUP2 MSTORE PUSH1 0x1 PUSH1 0x20 DUP2 SWAP1 MSTORE PUSH1 0x40 DUP3 KECCAK256 DUP1 SLOAD SWAP2 SWAP3 SWAP1 SWAP2 PUSH2 0x187 SWAP1 DUP5 SWAP1 PUSH2 0x281 JUMP JUMPDEST SWAP1 SWAP2 SSTORE POP POP CALLER PUSH1 0x0 DUP2 DUP2 MSTORE PUSH1 0x2 PUSH1 0x20 MSTORE PUSH1 0x40 SWAP1 DUP2 SWAP1 KECCAK256 TIMESTAMP SWAP1 DUP2 SWAP1 SSTORE SWAP1 MLOAD PUSH32 0x247B19649778C81AAD1923B4B49025B7EED6F664D6A4E802190BFB35724F95A9 SWAP2 PUSH2 0x1D3 SWAP2 DUP7 SWAP1 DUP7 SWAP1 PUSH2 0x2A7 JUMP JUMPDEST PUSH1 0x40 MLOAD DUP1 SWAP2 SUB SWAP1 LOG2 POP POP JUMP JUMPDEST PUSH1 0x0 DUP1 PUSH1 0x20 DUP4 DUP6 SUB SLT ISZERO PUSH2 0x1F2 JUMPI PUSH1 0x0 DUP1 REVERT JUMPDEST DUP3 CALLDATALOAD PUSH8 0xFFFFFFFFFFFFFFFF DUP1 DUP3 GT ISZERO PUSH2 0x20A JUMPI PUSH1 0x0 DUP1 REVERT JUMPDEST DUP2 DUP6 ADD SWAP2 POP DUP6 PUSH1 0x1F DUP4 ADD SLT PUSH2 0x21E JUMPI PUSH1 0x0 DUP1 REVERT JUMPDEST DUP2 CALLDATALOAD DUP2 DUP2 GT ISZERO PUSH2 0x22D JUMPI PUSH1 0x0 DUP1 REVERT JUMPDEST DUP7 PUSH1 0x20 DUP3 DUP6 ADD ADD GT ISZERO PUSH2 0x23F JUMPI PUSH1 0x0 DUP1 REVERT JUMPDEST PUSH1 0x20 SWAP3 SWAP1 SWAP3 ADD SWAP7 SWAP2 SWAP6 POP SWAP1 SWAP4 POP POP POP POP JUMP JUMPDEST PUSH1 0x0 PUSH1 0x20 DUP3 DUP5 SUB SLT ISZERO PUSH2 0x263 JUMPI PUSH1 0x0 DUP1 REVERT JUMPDEST DUP2 CALLDATALOAD PUSH1 0x1 PUSH1 0x1 PUSH1 0xA0 SHL SUB DUP2 AND DUP2 EQ PUSH2 0x27A JUMPI PUSH1 0x0 DUP1 REVERT JUMPDEST SWAP4 SWAP3 POP POP POP JUMP JUMPDEST PUSH1 0x0 DUP3 NOT DUP3 GT ISZERO PUSH2 0x2A2 JUMPI PUSH4 0x4E487B71 PUSH1 0xE0 SHL PUSH1 0x0 MSTORE PUSH1 0x11 PUSH1 0x4 MSTORE PUSH1 0x24 PUSH1 0x0 REVERT JUMPDEST POP ADD SWAP1 JUMP JUMPDEST DUP4 DUP2 MSTORE PUSH1 0x40 PUSH1 0x20 DUP3 ADD MSTORE DUP2 PUSH1 0x40 DUP3 ADD MSTORE DUP2 DUP4 PUSH1 0x60 DUP4 ADD CALLDATACOPY PUSH1 0x0 DUP2 DUP4 ADD PUSH1 0x60 SWAP1 DUP2 ADD SWAP2 SWAP1 SWAP2 MSTORE PUSH1 0x1F SWAP1 SWAP3 ADD PUSH1 0x1F NOT AND ADD ADD SWAP3 SWAP2 POP POP JUMP INVALID LOG2 PUSH5 0x6970667358 0x22 SLT KECCAK256 PUSH2 0xB9E5 0x2E BASEFEE 0x4A PUSH30 0xBCF77494D6A8A9224028A2F41C944F20919C55896800A3AF8664736F6C63 NUMBER STOP ADDMOD SIGNEXTEND STOP CALLER ",
    "sha1": "370221bf9e0fd09c0c4242540e0854037eca3cb3",
    "source": "// SPDX-License-Identifier: MIT\n\npragma solidity ^0.8.0;\n\ncontract TwitterAccount {\n    address public me;\n\n    mapping(address => uint256) public numOfTweets;\n    mapping(address => uint256) public lastTweetedAt;\n\n    // constructor\n    constructor() {\n        me = msg.sender;\n    }\n\n    event NewTweet(address indexed from, uint256 timestamp, string message);\n\n    // create new tweet\n    function tweetAtMe(string calldata _message) external {\n        require(\n            lastTweetedAt[msg.sender] + 15 minutes < block.timestamp,\n            \"Must wait 15 minutes before waving again.\"\n        );\n\n        // Update the `waves` mapping\n        numOfTweets[msg.sender] += 1;\n        lastTweetedAt[msg.sender] = block.timestamp;\n\n        // Emit the `Tweet` event.\n        emit NewTweet(msg.sender, block.timestamp, _message);\n    }\n}\n",
    "sourcePath": "contracts/TwitterAccount.sol",
    "type": "contract"
}