{"abi":[{"inputs":[],"stateMutability":"nonpayable","type":"constructor","name":"constructor"},{"inputs":[],"name":"_adminAddress","outputs":[{"internalType":"address","name":"","type":"address"}],"stateMutability":"view","type":"function"},{"inputs":[],"name":"_numberOfTweets","outputs":[{"internalType":"uint256","name":"","type":"uint256"}],"stateMutability":"view","type":"function"},{"inputs":[{"internalType":"uint256","name":"","type":"uint256"}],"name":"_tweets","outputs":[{"internalType":"uint256","name":"timestamp","type":"uint256"},{"internalType":"string","name":"tweetString","type":"string"}],"stateMutability":"view","type":"function"},{"inputs":[],"name":"getLatestTweet","outputs":[{"internalType":"string","name":"tweetString","type":"string"},{"internalType":"uint256","name":"timestamp","type":"uint256"},{"internalType":"uint256","name":"numberOfTweets","type":"uint256"}],"stateMutability":"view","type":"function"},{"inputs":[],"name":"getNumberOfTweets","outputs":[{"internalType":"uint256","name":"","type":"uint256"}],"stateMutability":"view","type":"function"},{"inputs":[],"name":"getOwnerAddress","outputs":[{"internalType":"address","name":"","type":"address"}],"stateMutability":"view","type":"function"},{"inputs":[{"internalType":"uint256","name":"tweetId","type":"uint256"}],"name":"getTweet","outputs":[{"internalType":"string","name":"tweetString","type":"string"},{"internalType":"uint256","name":"timestamp","type":"uint256"}],"stateMutability":"view","type":"function"},{"inputs":[],"name":"isAdmin","outputs":[{"internalType":"bool","name":"","type":"bool"}],"stateMutability":"view","type":"function"},{"inputs":[],"name":"timeCall","outputs":[{"internalType":"uint256","name":"","type":"uint256"}],"stateMutability":"view","type":"function"},{"inputs":[{"internalType":"string","name":"tweetString","type":"string"}],"name":"tweet","outputs":[{"internalType":"int256","name":"result","type":"int256"}],"stateMutability":"nonpayable","type":"function"}],"bytecode":"608060405234801561001057600080fd5b506000600155600280546001600160a01b03191633179055610731806100376000396000f3fe608060405234801561001057600080fd5b506004361061009e5760003560e01c8063ae978f0811610066578063ae978f081461011e578063b6db75a014610135578063c3ad5ecb14610153578063ca7dc5b114610174578063fb46d4c51461017c57600080fd5b806301de0cb8146100a35780630c25b335146100bf5780630c4f65bd146100c55780635c1cb691146100ea57806376296d09146100fd575b600080fd5b6100ac60015481565b6040519081526020015b60405180910390f35b426100ac565b6002546001600160a01b03165b6040516001600160a01b0390911681526020016100b6565b6002546100d2906001600160a01b031681565b61011061010b3660046104e3565b61018f565b6040516100b6929190610549565b610126610234565b6040516100b69392919061056a565b6002546001600160a01b0316331460405190151581526020016100b6565b6101666101613660046104e3565b610315565b6040516100b692919061058f565b6001546100ac565b6100ac61018a3660046105c7565b6103cb565b600060208190529081526040902080546001820180549192916101b190610678565b80601f01602080910402602001604051908101604052809291908181526020018280546101dd90610678565b801561022a5780601f106101ff5761010080835404028352916020019161022a565b820191906000526020600020905b81548152906001019060200180831161020d57829003601f168201915b5050505050905082565b60606000806000806001805461024a91906106c9565b8152602001908152602001600020600101805461026690610678565b80601f016020809104026020016040519081016040528092919081815260200182805461029290610678565b80156102df5780601f106102b4576101008083540402835291602001916102df565b820191906000526020600020905b8154815290600101906020018083116102c257829003601f168201915b50505050509250600080600180546102f791906106c9565b81526020019081526020016000206000015491506001549050909192565b60008181526020819052604081206001018054606092919061033690610678565b80601f016020809104026020016040519081016040528092919081815260200182805461036290610678565b80156103af5780601f10610384576101008083540402835291602001916103af565b820191906000526020600020905b81548152906001019060200180831161039257829003601f168201915b5050506000958652505060208490526040909320549293915050565b6002546000906001600160a01b031633146103e95750600019919050565b60a0825111156103fc5750600119919050565b6001805460009081526020818152604080832042905583548352909120845161042c93919091019185019061044a565b506001805490600061043d836106e0565b9091555060009392505050565b82805461045690610678565b90600052602060002090601f01602090048101928261047857600085556104be565b82601f1061049157805160ff19168380011785556104be565b828001600101855582156104be579182015b828111156104be5782518255916020019190600101906104a3565b506104ca9291506104ce565b5090565b5b808211156104ca57600081556001016104cf565b6000602082840312156104f557600080fd5b5035919050565b6000815180845260005b8181101561052257602081850181015186830182015201610506565b81811115610534576000602083870101525b50601f01601f19169290920160200192915050565b82815260406020820152600061056260408301846104fc565b949350505050565b60608152600061057d60608301866104fc565b60208301949094525060400152919050565b6040815260006105a260408301856104fc565b90508260208301529392505050565b634e487b7160e01b600052604160045260246000fd5b6000602082840312156105d957600080fd5b813567ffffffffffffffff808211156105f157600080fd5b818401915084601f83011261060557600080fd5b813581811115610617576106176105b1565b604051601f8201601f19908116603f0116810190838211818310171561063f5761063f6105b1565b8160405282815287602084870101111561065857600080fd5b826020860160208301376000928101602001929092525095945050505050565b600181811c9082168061068c57607f821691505b602082108114156106ad57634e487b7160e01b600052602260045260246000fd5b50919050565b634e487b7160e01b600052601160045260246000fd5b6000828210156106db576106db6106b3565b500390565b60006000198214156106f4576106f46106b3565b506001019056fea26469706673582212203a394762b276e0a3dd35d232721b91fb783ced05d0d8132e86ff2360e18af27b64736f6c634300080b0033","bytecodeSha1":"13afb6eb37c7a8b01b45492d3722265adaa0abf5","compiler":{"evm_version":"istanbul","optimizer":{"enabled":true,"runs":200},"version":"0.8.11+commit.d7f03943"},"contractName":"TwitterAccount","language":"Solidity","natspec":{"kind":"dev","methods":{},"version":1},"opcodes":"PUSH1 0x80 PUSH1 0x40 MSTORE CALLVALUE DUP1 ISZERO PUSH2 0x10 JUMPI PUSH1 0x0 DUP1 REVERT JUMPDEST POP PUSH1 0x4 CALLDATASIZE LT PUSH2 0x9E JUMPI PUSH1 0x0 CALLDATALOAD PUSH1 0xE0 SHR DUP1 PUSH4 0xAE978F08 GT PUSH2 0x66 JUMPI DUP1 PUSH4 0xAE978F08 EQ PUSH2 0x11E JUMPI DUP1 PUSH4 0xB6DB75A0 EQ PUSH2 0x135 JUMPI DUP1 PUSH4 0xC3AD5ECB EQ PUSH2 0x153 JUMPI DUP1 PUSH4 0xCA7DC5B1 EQ PUSH2 0x174 JUMPI DUP1 PUSH4 0xFB46D4C5 EQ PUSH2 0x17C JUMPI PUSH1 0x0 DUP1 REVERT JUMPDEST DUP1 PUSH4 0x1DE0CB8 EQ PUSH2 0xA3 JUMPI DUP1 PUSH4 0xC25B335 EQ PUSH2 0xBF JUMPI DUP1 PUSH4 0xC4F65BD EQ PUSH2 0xC5 JUMPI DUP1 PUSH4 0x5C1CB691 EQ PUSH2 0xEA JUMPI DUP1 PUSH4 0x76296D09 EQ PUSH2 0xFD JUMPI JUMPDEST PUSH1 0x0 DUP1 REVERT JUMPDEST PUSH2 0xAC PUSH1 0x1 SLOAD DUP2 JUMP JUMPDEST PUSH1 0x40 MLOAD SWAP1 DUP2 MSTORE PUSH1 0x20 ADD JUMPDEST PUSH1 0x40 MLOAD DUP1 SWAP2 SUB SWAP1 RETURN JUMPDEST TIMESTAMP PUSH2 0xAC JUMP JUMPDEST PUSH1 0x2 SLOAD PUSH1 0x1 PUSH1 0x1 PUSH1 0xA0 SHL SUB AND JUMPDEST PUSH1 0x40 MLOAD PUSH1 0x1 PUSH1 0x1 PUSH1 0xA0 SHL SUB SWAP1 SWAP2 AND DUP2 MSTORE PUSH1 0x20 ADD PUSH2 0xB6 JUMP JUMPDEST PUSH1 0x2 SLOAD PUSH2 0xD2 SWAP1 PUSH1 0x1 PUSH1 0x1 PUSH1 0xA0 SHL SUB AND DUP2 JUMP JUMPDEST PUSH2 0x110 PUSH2 0x10B CALLDATASIZE PUSH1 0x4 PUSH2 0x4E3 JUMP JUMPDEST PUSH2 0x18F JUMP JUMPDEST PUSH1 0x40 MLOAD PUSH2 0xB6 SWAP3 SWAP2 SWAP1 PUSH2 0x549 JUMP JUMPDEST PUSH2 0x126 PUSH2 0x234 JUMP JUMPDEST PUSH1 0x40 MLOAD PUSH2 0xB6 SWAP4 SWAP3 SWAP2 SWAP1 PUSH2 0x56A JUMP JUMPDEST PUSH1 0x2 SLOAD PUSH1 0x1 PUSH1 0x1 PUSH1 0xA0 SHL SUB AND CALLER EQ PUSH1 0x40 MLOAD SWAP1 ISZERO ISZERO DUP2 MSTORE PUSH1 0x20 ADD PUSH2 0xB6 JUMP JUMPDEST PUSH2 0x166 PUSH2 0x161 CALLDATASIZE PUSH1 0x4 PUSH2 0x4E3 JUMP JUMPDEST PUSH2 0x315 JUMP JUMPDEST PUSH1 0x40 MLOAD PUSH2 0xB6 SWAP3 SWAP2 SWAP1 PUSH2 0x58F JUMP JUMPDEST PUSH1 0x1 SLOAD PUSH2 0xAC JUMP JUMPDEST PUSH2 0xAC PUSH2 0x18A CALLDATASIZE PUSH1 0x4 PUSH2 0x5C7 JUMP JUMPDEST PUSH2 0x3CB JUMP JUMPDEST PUSH1 0x0 PUSH1 0x20 DUP2 SWAP1 MSTORE SWAP1 DUP2 MSTORE PUSH1 0x40 SWAP1 KECCAK256 DUP1 SLOAD PUSH1 0x1 DUP3 ADD DUP1 SLOAD SWAP2 SWAP3 SWAP2 PUSH2 0x1B1 SWAP1 PUSH2 0x678 JUMP JUMPDEST DUP1 PUSH1 0x1F ADD PUSH1 0x20 DUP1 SWAP2 DIV MUL PUSH1 0x20 ADD PUSH1 0x40 MLOAD SWAP1 DUP2 ADD PUSH1 0x40 MSTORE DUP1 SWAP3 SWAP2 SWAP1 DUP2 DUP2 MSTORE PUSH1 0x20 ADD DUP3 DUP1 SLOAD PUSH2 0x1DD SWAP1 PUSH2 0x678 JUMP JUMPDEST DUP1 ISZERO PUSH2 0x22A JUMPI DUP1 PUSH1 0x1F LT PUSH2 0x1FF JUMPI PUSH2 0x100 DUP1 DUP4 SLOAD DIV MUL DUP4 MSTORE SWAP2 PUSH1 0x20 ADD SWAP2 PUSH2 0x22A JUMP JUMPDEST DUP3 ADD SWAP2 SWAP1 PUSH1 0x0 MSTORE PUSH1 0x20 PUSH1 0x0 KECCAK256 SWAP1 JUMPDEST DUP2 SLOAD DUP2 MSTORE SWAP1 PUSH1 0x1 ADD SWAP1 PUSH1 0x20 ADD DUP1 DUP4 GT PUSH2 0x20D JUMPI DUP3 SWAP1 SUB PUSH1 0x1F AND DUP3 ADD SWAP2 JUMPDEST POP POP POP POP POP SWAP1 POP DUP3 JUMP JUMPDEST PUSH1 0x60 PUSH1 0x0 DUP1 PUSH1 0x0 DUP1 PUSH1 0x1 DUP1 SLOAD PUSH2 0x24A SWAP2 SWAP1 PUSH2 0x6C9 JUMP JUMPDEST DUP2 MSTORE PUSH1 0x20 ADD SWAP1 DUP2 MSTORE PUSH1 0x20 ADD PUSH1 0x0 KECCAK256 PUSH1 0x1 ADD DUP1 SLOAD PUSH2 0x266 SWAP1 PUSH2 0x678 JUMP JUMPDEST DUP1 PUSH1 0x1F ADD PUSH1 0x20 DUP1 SWAP2 DIV MUL PUSH1 0x20 ADD PUSH1 0x40 MLOAD SWAP1 DUP2 ADD PUSH1 0x40 MSTORE DUP1 SWAP3 SWAP2 SWAP1 DUP2 DUP2 MSTORE PUSH1 0x20 ADD DUP3 DUP1 SLOAD PUSH2 0x292 SWAP1 PUSH2 0x678 JUMP JUMPDEST DUP1 ISZERO PUSH2 0x2DF JUMPI DUP1 PUSH1 0x1F LT PUSH2 0x2B4 JUMPI PUSH2 0x100 DUP1 DUP4 SLOAD DIV MUL DUP4 MSTORE SWAP2 PUSH1 0x20 ADD SWAP2 PUSH2 0x2DF JUMP JUMPDEST DUP3 ADD SWAP2 SWAP1 PUSH1 0x0 MSTORE PUSH1 0x20 PUSH1 0x0 KECCAK256 SWAP1 JUMPDEST DUP2 SLOAD DUP2 MSTORE SWAP1 PUSH1 0x1 ADD SWAP1 PUSH1 0x20 ADD DUP1 DUP4 GT PUSH2 0x2C2 JUMPI DUP3 SWAP1 SUB PUSH1 0x1F AND DUP3 ADD SWAP2 JUMPDEST POP POP POP POP POP SWAP3 POP PUSH1 0x0 DUP1 PUSH1 0x1 DUP1 SLOAD PUSH2 0x2F7 SWAP2 SWAP1 PUSH2 0x6C9 JUMP JUMPDEST DUP2 MSTORE PUSH1 0x20 ADD SWAP1 DUP2 MSTORE PUSH1 0x20 ADD PUSH1 0x0 KECCAK256 PUSH1 0x0 ADD SLOAD SWAP2 POP PUSH1 0x1 SLOAD SWAP1 POP SWAP1 SWAP2 SWAP3 JUMP JUMPDEST PUSH1 0x0 DUP2 DUP2 MSTORE PUSH1 0x20 DUP2 SWAP1 MSTORE PUSH1 0x40 DUP2 KECCAK256 PUSH1 0x1 ADD DUP1 SLOAD PUSH1 0x60 SWAP3 SWAP2 SWAP1 PUSH2 0x336 SWAP1 PUSH2 0x678 JUMP JUMPDEST DUP1 PUSH1 0x1F ADD PUSH1 0x20 DUP1 SWAP2 DIV MUL PUSH1 0x20 ADD PUSH1 0x40 MLOAD SWAP1 DUP2 ADD PUSH1 0x40 MSTORE DUP1 SWAP3 SWAP2 SWAP1 DUP2 DUP2 MSTORE PUSH1 0x20 ADD DUP3 DUP1 SLOAD PUSH2 0x362 SWAP1 PUSH2 0x678 JUMP JUMPDEST DUP1 ISZERO PUSH2 0x3AF JUMPI DUP1 PUSH1 0x1F LT PUSH2 0x384 JUMPI PUSH2 0x100 DUP1 DUP4 SLOAD DIV MUL DUP4 MSTORE SWAP2 PUSH1 0x20 ADD SWAP2 PUSH2 0x3AF JUMP JUMPDEST DUP3 ADD SWAP2 SWAP1 PUSH1 0x0 MSTORE PUSH1 0x20 PUSH1 0x0 KECCAK256 SWAP1 JUMPDEST DUP2 SLOAD DUP2 MSTORE SWAP1 PUSH1 0x1 ADD SWAP1 PUSH1 0x20 ADD DUP1 DUP4 GT PUSH2 0x392 JUMPI DUP3 SWAP1 SUB PUSH1 0x1F AND DUP3 ADD SWAP2 JUMPDEST POP POP POP PUSH1 0x0 SWAP6 DUP7 MSTORE POP POP PUSH1 0x20 DUP5 SWAP1 MSTORE PUSH1 0x40 SWAP1 SWAP4 KECCAK256 SLOAD SWAP3 SWAP4 SWAP2 POP POP JUMP JUMPDEST PUSH1 0x2 SLOAD PUSH1 0x0 SWAP1 PUSH1 0x1 PUSH1 0x1 PUSH1 0xA0 SHL SUB AND CALLER EQ PUSH2 0x3E9 JUMPI POP PUSH1 0x0 NOT SWAP2 SWAP1 POP JUMP JUMPDEST PUSH1 0xA0 DUP3 MLOAD GT ISZERO PUSH2 0x3FC JUMPI POP PUSH1 0x1 NOT SWAP2 SWAP1 POP JUMP JUMPDEST PUSH1 0x1 DUP1 SLOAD PUSH1 0x0 SWAP1 DUP2 MSTORE PUSH1 0x20 DUP2 DUP2 MSTORE PUSH1 0x40 DUP1 DUP4 KECCAK256 TIMESTAMP SWAP1 SSTORE DUP4 SLOAD DUP4 MSTORE SWAP1 SWAP2 KECCAK256 DUP5 MLOAD PUSH2 0x42C SWAP4 SWAP2 SWAP1 SWAP2 ADD SWAP2 DUP6 ADD SWAP1 PUSH2 0x44A JUMP JUMPDEST POP PUSH1 0x1 DUP1 SLOAD SWAP1 PUSH1 0x0 PUSH2 0x43D DUP4 PUSH2 0x6E0 JUMP JUMPDEST SWAP1 SWAP2 SSTORE POP PUSH1 0x0 SWAP4 SWAP3 POP POP POP JUMP JUMPDEST DUP3 DUP1 SLOAD PUSH2 0x456 SWAP1 PUSH2 0x678 JUMP JUMPDEST SWAP1 PUSH1 0x0 MSTORE PUSH1 0x20 PUSH1 0x0 KECCAK256 SWAP1 PUSH1 0x1F ADD PUSH1 0x20 SWAP1 DIV DUP2 ADD SWAP3 DUP3 PUSH2 0x478 JUMPI PUSH1 0x0 DUP6 SSTORE PUSH2 0x4BE JUMP JUMPDEST DUP3 PUSH1 0x1F LT PUSH2 0x491 JUMPI DUP1 MLOAD PUSH1 0xFF NOT AND DUP4 DUP1 ADD OR DUP6 SSTORE PUSH2 0x4BE JUMP JUMPDEST DUP3 DUP1 ADD PUSH1 0x1 ADD DUP6 SSTORE DUP3 ISZERO PUSH2 0x4BE JUMPI SWAP2 DUP3 ADD JUMPDEST DUP3 DUP2 GT ISZERO PUSH2 0x4BE JUMPI DUP3 MLOAD DUP3 SSTORE SWAP2 PUSH1 0x20 ADD SWAP2 SWAP1 PUSH1 0x1 ADD SWAP1 PUSH2 0x4A3 JUMP JUMPDEST POP PUSH2 0x4CA SWAP3 SWAP2 POP PUSH2 0x4CE JUMP JUMPDEST POP SWAP1 JUMP JUMPDEST JUMPDEST DUP1 DUP3 GT ISZERO PUSH2 0x4CA JUMPI PUSH1 0x0 DUP2 SSTORE PUSH1 0x1 ADD PUSH2 0x4CF JUMP JUMPDEST PUSH1 0x0 PUSH1 0x20 DUP3 DUP5 SUB SLT ISZERO PUSH2 0x4F5 JUMPI PUSH1 0x0 DUP1 REVERT JUMPDEST POP CALLDATALOAD SWAP2 SWAP1 POP JUMP JUMPDEST PUSH1 0x0 DUP2 MLOAD DUP1 DUP5 MSTORE PUSH1 0x0 JUMPDEST DUP2 DUP2 LT ISZERO PUSH2 0x522 JUMPI PUSH1 0x20 DUP2 DUP6 ADD DUP2 ADD MLOAD DUP7 DUP4 ADD DUP3 ADD MSTORE ADD PUSH2 0x506 JUMP JUMPDEST DUP2 DUP2 GT ISZERO PUSH2 0x534 JUMPI PUSH1 0x0 PUSH1 0x20 DUP4 DUP8 ADD ADD MSTORE JUMPDEST POP PUSH1 0x1F ADD PUSH1 0x1F NOT AND SWAP3 SWAP1 SWAP3 ADD PUSH1 0x20 ADD SWAP3 SWAP2 POP POP JUMP JUMPDEST DUP3 DUP2 MSTORE PUSH1 0x40 PUSH1 0x20 DUP3 ADD MSTORE PUSH1 0x0 PUSH2 0x562 PUSH1 0x40 DUP4 ADD DUP5 PUSH2 0x4FC JUMP JUMPDEST SWAP5 SWAP4 POP POP POP POP JUMP JUMPDEST PUSH1 0x60 DUP2 MSTORE PUSH1 0x0 PUSH2 0x57D PUSH1 0x60 DUP4 ADD DUP7 PUSH2 0x4FC JUMP JUMPDEST PUSH1 0x20 DUP4 ADD SWAP5 SWAP1 SWAP5 MSTORE POP PUSH1 0x40 ADD MSTORE SWAP2 SWAP1 POP JUMP JUMPDEST PUSH1 0x40 DUP2 MSTORE PUSH1 0x0 PUSH2 0x5A2 PUSH1 0x40 DUP4 ADD DUP6 PUSH2 0x4FC JUMP JUMPDEST SWAP1 POP DUP3 PUSH1 0x20 DUP4 ADD MSTORE SWAP4 SWAP3 POP POP POP JUMP JUMPDEST PUSH4 0x4E487B71 PUSH1 0xE0 SHL PUSH1 0x0 MSTORE PUSH1 0x41 PUSH1 0x4 MSTORE PUSH1 0x24 PUSH1 0x0 REVERT JUMPDEST PUSH1 0x0 PUSH1 0x20 DUP3 DUP5 SUB SLT ISZERO PUSH2 0x5D9 JUMPI PUSH1 0x0 DUP1 REVERT JUMPDEST DUP2 CALLDATALOAD PUSH8 0xFFFFFFFFFFFFFFFF DUP1 DUP3 GT ISZERO PUSH2 0x5F1 JUMPI PUSH1 0x0 DUP1 REVERT JUMPDEST DUP2 DUP5 ADD SWAP2 POP DUP5 PUSH1 0x1F DUP4 ADD SLT PUSH2 0x605 JUMPI PUSH1 0x0 DUP1 REVERT JUMPDEST DUP2 CALLDATALOAD DUP2 DUP2 GT ISZERO PUSH2 0x617 JUMPI PUSH2 0x617 PUSH2 0x5B1 JUMP JUMPDEST PUSH1 0x40 MLOAD PUSH1 0x1F DUP3 ADD PUSH1 0x1F NOT SWAP1 DUP2 AND PUSH1 0x3F ADD AND DUP2 ADD SWAP1 DUP4 DUP3 GT DUP2 DUP4 LT OR ISZERO PUSH2 0x63F JUMPI PUSH2 0x63F PUSH2 0x5B1 JUMP JUMPDEST DUP2 PUSH1 0x40 MSTORE DUP3 DUP2 MSTORE DUP8 PUSH1 0x20 DUP5 DUP8 ADD ADD GT ISZERO PUSH2 0x658 JUMPI PUSH1 0x0 DUP1 REVERT JUMPDEST DUP3 PUSH1 0x20 DUP7 ADD PUSH1 0x20 DUP4 ADD CALLDATACOPY PUSH1 0x0 SWAP3 DUP2 ADD PUSH1 0x20 ADD SWAP3 SWAP1 SWAP3 MSTORE POP SWAP6 SWAP5 POP POP POP POP POP JUMP JUMPDEST PUSH1 0x1 DUP2 DUP2 SHR SWAP1 DUP3 AND DUP1 PUSH2 0x68C JUMPI PUSH1 0x7F DUP3 AND SWAP2 POP JUMPDEST PUSH1 0x20 DUP3 LT DUP2 EQ ISZERO PUSH2 0x6AD JUMPI PUSH4 0x4E487B71 PUSH1 0xE0 SHL PUSH1 0x0 MSTORE PUSH1 0x22 PUSH1 0x4 MSTORE PUSH1 0x24 PUSH1 0x0 REVERT JUMPDEST POP SWAP2 SWAP1 POP JUMP JUMPDEST PUSH4 0x4E487B71 PUSH1 0xE0 SHL PUSH1 0x0 MSTORE PUSH1 0x11 PUSH1 0x4 MSTORE PUSH1 0x24 PUSH1 0x0 REVERT JUMPDEST PUSH1 0x0 DUP3 DUP3 LT ISZERO PUSH2 0x6DB JUMPI PUSH2 0x6DB PUSH2 0x6B3 JUMP JUMPDEST POP SUB SWAP1 JUMP JUMPDEST PUSH1 0x0 PUSH1 0x0 NOT DUP3 EQ ISZERO PUSH2 0x6F4 JUMPI PUSH2 0x6F4 PUSH2 0x6B3 JUMP JUMPDEST POP PUSH1 0x1 ADD SWAP1 JUMP INVALID LOG2 PUSH5 0x6970667358 0x22 SLT KECCAK256 GASPRICE CODECOPY SELFBALANCE PUSH3 0xB276E0 LOG3 0xDD CALLDATALOAD 0xD2 ORIGIN PUSH19 0x1B91FB783CED05D0D8132E86FF2360E18AF27B PUSH5 0x736F6C6343 STOP ADDMOD SIGNEXTEND STOP CALLER ","sha1":"e8b69f7460e289187514c4034da560a99fd023b9","source":"// SPDX-License-Identifier: MIT\n\npragma solidity ^0.8.0;\n\ncontract TwitterAccount {\n    // data structure of a single tweet\n    struct Tweet {\n        uint256 timestamp;\n        string tweetString;\n    }\n\n    // \"array\" of all tweets of this account: maps the tweet id to the actual tweet\n    mapping(uint256 => Tweet) public _tweets;\n\n    // total number of tweets in the above _tweets mapping\n    uint256 public _numberOfTweets;\n\n    // \"owner\" of this account: only admin is allowed to tweet\n    address public _adminAddress;\n\n    // constructor\n    constructor() {\n        _numberOfTweets = 0;\n        _adminAddress = msg.sender;\n    }\n\n    // returns true if caller of function (\"sender\") is admin\n    function isAdmin() public view returns (bool) {\n        return msg.sender == _adminAddress;\n    }\n\n    // create new tweet\n    function tweet(string memory tweetString) public returns (int256 result) {\n        if (!isAdmin()) {\n            // only owner is allowed to create tweets for this account\n            result = -1;\n        } else if (bytes(tweetString).length > 160) {\n            // tweet contains more than 160 bytes\n            result = -2;\n        } else {\n            _tweets[_numberOfTweets].timestamp = block.timestamp;\n            _tweets[_numberOfTweets].tweetString = tweetString;\n            _numberOfTweets++;\n            result = 0; // success\n        }\n    }\n\n    function getTweet(uint256 tweetId)\n        public\n        view\n        returns (string memory tweetString, uint256 timestamp)\n    {\n        // returns two values\n        tweetString = _tweets[tweetId].tweetString;\n        timestamp = _tweets[tweetId].timestamp;\n    }\n\n    function getLatestTweet()\n        public\n        view\n        returns (\n            string memory tweetString,\n            uint256 timestamp,\n            uint256 numberOfTweets\n        )\n    {\n        // returns three values\n        tweetString = _tweets[_numberOfTweets - 1].tweetString;\n        timestamp = _tweets[_numberOfTweets - 1].timestamp;\n        numberOfTweets = _numberOfTweets;\n    }\n\n    function getOwnerAddress() public view returns (address) {\n        return _adminAddress;\n    }\n\n    function getNumberOfTweets() public view returns (uint256) {\n        return _numberOfTweets;\n    }\n\n    function timeCall() public view returns (uint256) {\n        return block.timestamp;\n    }\n}\n","sourcePath":"contracts/TwitterAccount.sol","type":"contract","deployment":{"address":"0x8E7997F9A183fc7D5d6Df76D03BE584a084d46FF","chainid":"4","blockHeight":10139511}}